:020000040800F2
:1000000000000520A1B50008CDB40008CFB4000859
:10001000D1B40008D3B40008D5B400080000000033
:1000200000000000000000000000000091630008D4
:10003000D7B400080000000031640008956400088F
:10004000F1B50008F1B50008F1B50008F1B50008F8
:10005000F1B50008F1B50008F1B50008F1B50008E8
:10006000F1B50008F1B50008F1B50008F1B50008D8
:10007000F1B50008F1B50008F1B50008F1B50008C8
:10008000F1B50008F1B50008F1B50008F1B50008B8
:10009000F1B50008F1B50008F1B50008F1B50008A8
:1000A000F1B50008F1B50008F1B50008F1B5000898
:1000B000F1B50008F1B50008F1B50008F1B5000888
:1000C000F1B50008F1B50008F1B50008F1B5000878
:1000D000F1B50008F1B50008F1B50008F1B5000868
:1000E000F1B50008F1B50008F1B50008F1B5000858
:1000F000F1B50008F1B50008F1B50008F1B5000848
:10010000F1B50008F1B50008F1B50008F1B5000837
:10011000F1B50008F1B50008D9B40008F1B5000840
:10012000F1B50008F1B50008F1B50008F1B5000817
:10013000F1B50008E9B40008F1B50008F1B5000810
:10014000F1B50008F1B50008F1B50008F1B50008F7
:10015000F1B50008F1B50008F1B50008F1B50008E7
:10016000F1B50008F1B50008F1B50008F1B50008D7
:10017000F1B50008F1B50008F1B500080000000075
:10018000F1B50008F1B50008F1B50008F1B50008B7
:10019000F1B50008F1B50008F1B50008F1B50008A7
:1001A000F1B50008F1B50008F1B50008F1B5000897
:1001B000F1B50008F1B50008F1B50008F1B5000887
:0801C000F1B50008F1B50008DB
:1001D00010B5054C237833B9044B13B10448AFF381
:1001E00000800123237010BD1002002000000000D9
:1001F00020DD000808B5034B1BB103490348AFF3EA
:10020000008008BD000000001402002020DD00086E
:1002100081F0004102E000BF83F0004330B54FEAB7
:1002200041044FEA430594EA050F08BF90EA020F24
:100230001FBF54EA000C55EA020C7FEA645C7FEAB7
:10024000655C00F0E2804FEA5454D4EB5555B8BFDA
:100250006D420CDD2C4480EA020281EA030382EA4B
:10026000000083EA010180EA020281EA0303362DDD
:1002700088BF30BD11F0004F4FEA01314FF4801CB0
:100280004CEA113102D0404261EB410113F0004FC2
:100290004FEA03334CEA133302D0524263EB430379
:1002A00094EA050F00F0A780A4F10104D5F1200E17
:1002B0000DDB02FA0EFC22FA05F2801841F1000172
:1002C00003FA0EF2801843FA05F359410EE0A5F146
:1002D00020050EF1200E012A03FA0EFC28BF4CF077
:1002E000020C43FA05F3C01851EBE37101F000452D
:1002F00007D54FF0000EDCF1000C7EEB00006EEB3A
:100300000101B1F5801F1BD3B1F5001F0CD34908C3
:100310005FEA30004FEA3C0C04F101044FEA44521A
:1003200012F5800F80F09A80BCF1004F08BF5FEAA1
:10033000500C50F1000041EB045141EA050130BD81
:100340005FEA4C0C404141EB010111F4801FA4F124
:100350000104E9D191F0000F04BF01460020B1FA79
:1003600081F308BF2033A3F10B03B3F120020CDAB1
:100370000C3208DD02F1140CC2F10C0201FA0CF08F
:1003800021FA02F10CE002F11402D8BFC2F1200CF4
:1003900001FA02F120FA0CFCDCBF41EA0C019040AA
:1003A000E41AA2BF01EB0451294330BD6FEA0404F3
:1003B0001F3C1CDA0C340EDC04F11404C4F12002DE
:1003C00020FA04F001FA02F340EA030021FA04F3F0
:1003D00045EA030130BDC4F10C04C4F1200220FA47
:1003E00002F001FA04F340EA0300294630BD21FA85
:1003F00004F0294630BD94F0000F83F4801306BF4B
:1004000081F480110134013D4EE77FEA645C18BF3E
:100410007FEA655C29D094EA050F08BF90EA020FD5
:1004200005D054EA000C04BF1946104630BD91EACD
:10043000030F1EBF0021002030BD5FEA545C05D1D0
:100440004000494128BF41F0004130BD14F580040F
:100450003CBF01F5801130BD01F0004545F0FE4183
:1004600041F470014FF0000030BD7FEA645C1ABFB8
:10047000194610467FEA655C1CBF0B46024650EAEF
:10048000013406BF52EA033591EA030F41F400211B
:1004900030BD00BF90F0000F04BF0021704730B5A1
:1004A0004FF4806404F132044FF000054FF0000176
:1004B00050E700BF90F0000F04BF0021704730B537
:1004C0004FF4806404F1320410F0004548BF40420C
:1004D0004FF000013EE700BF42004FEAE2014FEA61
:1004E00031014FEA02701FBF12F07F4393F07F4F3C
:1004F00081F06051704732F07F4208BF704793F03F
:100500007F4F04BF41F40021704730B54FF4607451
:1005100001F0004521F000411CE700BF50EA010254
:1005200008BF704730B54FF000050AE050EA0102FD
:1005300008BF704730B511F0004502D5404261EB6D
:1005400041014FF4806404F132045FEA915C3FF4AE
:10055000D8AE4FF003025FEADC0C18BF03325FEA4B
:10056000DC0C18BF033202EBDC02C2F1200300FAFC
:1005700003FC20FA02F001FA03FE40EA0E0021FA21
:1005800002F11444BDE600BF70B54FF0FF0C4CF40F
:10059000E06C1CEA11541DBF1CEA135594EA0C0FC1
:1005A00095EA0C0F00F0DEF82C4481EA030621EAFC
:1005B0004C5123EA4C5350EA013518BF52EA033537
:1005C00041F4801143F4801338D0A0FB02CE4FF0E9
:1005D0000005E1FB02E506F00042E0FB03E54FF019
:1005E0000006E1FB03569CF0000F18BF4EF0010E11
:1005F000A4F1FF04B6F5007F64F5407404D25FEA0D
:100600004E0E6D4146EB060642EAC62141EA5551BF
:100610004FEAC52040EA5E504FEACE2EB4F1FD0C01
:1006200088BFBCF5E06F1ED8BEF1004F08BF5FEA7F
:10063000500E50F1000041EB045170BD06F0004631
:1006400046EA010140EA020081EA0301B4EB5C04DE
:10065000C2BFD4EB0C0541EA045170BD41F48011D6
:100660004FF0000E013C00F3AB8014F1360FDEBFFB
:10067000002001F0004170BDC4F10004203C35DAD7
:100680000C341BDC04F11404C4F1200500FA05F35A
:1006900020FA04F001FA05F240EA020001F00042FB
:1006A00021F0004110EBD37021FA04F642EB060171
:1006B0005EEA430E08BF20EAD37070BDC4F10C049B
:1006C000C4F1200500FA04F320FA05F001FA04F25F
:1006D00040EA020001F0004110EBD37041F100014B
:1006E0005EEA430E08BF20EAD37070BDC4F1200556
:1006F00000FA05F24EEA020E20FA04F301FA05F2BE
:1007000043EA020321FA04F001F0004121FA04F265
:1007100020EA020000EBD3705EEA430E08BF20EA35
:10072000D37070BD94F0000F0FD101F0004640006F
:1007300041EB010111F4801F08BF013CF7D041EAF1
:10074000060195F0000F18BF704703F000465200F5
:1007500043EB030313F4801F08BF013DF7D043EAC6
:100760000603704794EA0C0F0CEA135518BF95EA7C
:100770000C0F0CD050EA410618BF52EA4306D1D103
:1007800081EA030101F000414FF0000070BD50EA22
:10079000410606BF1046194652EA430619D094EAAC
:1007A0000C0F02D150EA013613D195EA0C0F05D196
:1007B00052EA03361CBF104619460AD181EA0301EA
:1007C00001F0004141F0FE4141F470014FF00000A2
:1007D00070BD41F0FE4141F4780170BD70B54FF03D
:1007E000FF0C4CF4E06C1CEA11541DBF1CEA1355BD
:1007F00094EA0C0F95EA0C0F00F0A7F8A4EB05049F
:1008000081EA030E52EA03354FEA013100F0888095
:100810004FEA03334FF0805545EA131343EA12635E
:100820004FEA022245EA111545EA10654FEA002613
:100830000EF000419D4208BF964244F1FD0404F5CC
:10084000407402D25B084FEA3202B61A65EB030528
:100850005B084FEA32024FF480104FF4002CB6EBE5
:10086000020E75EB030E22BFB61A754640EA0C0065
:100870005B084FEA3202B6EB020E75EB030E22BFA5
:10088000B61A754640EA5C005B084FEA3202B6EBE6
:10089000020E75EB030E22BFB61A754640EA9C00A5
:1008A0005B084FEA3202B6EB020E75EB030E22BF75
:1008B000B61A754640EADC0055EA060E18D04FEA33
:1008C000051545EA16754FEA06164FEAC30343EAD3
:1008D00052734FEAC2025FEA1C1CC0D111F4801FA0
:1008E0000BD141EA00014FF000004FF0004CB6E799
:1008F00011F4801F04BF01430020B4F1FD0C88BF38
:10090000BCF5E06F3FF6AFAEB5EB030C04BFB6EB42
:10091000020C5FEA500C50F1000041EB045170BD35
:100920000EF0004E4EEA113114EB5C04C2BFD4EB62
:100930000C0541EA045170BD41F480114FF0000EE6
:10094000013C90E645EA060E8DE60CEA135594EA62
:100950000C0F08BF95EA0C0F3FF43BAF94EA0C0F65
:100960000AD150EA01347FF434AF95EA0C0F7FF4DA
:1009700025AF104619462CE795EA0C0F06D152EA2E
:1009800003353FF4FDAE1046194622E750EA410612
:1009900018BF52EA43067FF4C5AE50EA41047FF423
:1009A0000DAF52EA43057FF4EBAE12E74A0011D2D5
:1009B00012F5001211D20DD56FF47873B3EB6252B9
:1009C0000ED44FEAC12343F0004343EA505323FAC5
:1009D00002F070474FF00000704750EA013002D13A
:1009E0004FF0FF3070474FF0000070474FEA410270
:1009F000B2F1E04324BFB3F5001CDCF1FE5C0DD97D
:100A000001F0004C4FEAC0024CEA5070B2F1004FC6
:100A100040EB830008BF20F00100704711F0804FC9
:100A200021D113F13872BCBF01F00040704741F48E
:100A300080114FEA5252C2F11802C2F1200C10FA92
:100A40000CF320FA02F018BF40F001004FEAC12376
:100A50004FEAD32303FA0CFC40EA0C0023FA02F31A
:100A60004FEA4303CCE77FEA625307D150EA0133F0
:100A70001EBF4FF0FE4040F44000704701F00040C0
:100A800040F0FE4040F40000704700BF53B94AB93F
:100A9000002908BF00281CBF4FF0FF314FF0FF3086
:100AA00000F072B9ADF1080C6DE904CE00F006F863
:100AB000DDF804E0DDE9022304B070472DE9F047DA
:100AC000089E04468846002B4BD18A42154667D9BA
:100AD000B2FA82F24AB1C2F1200701FA02F320FA17
:100AE00007F7954047EA030894404FEA154E230C58
:100AF000B8FBFEF71FFA85FC0EFB178843EA084394
:100B000007FB0CF1994209D9EB1807F1FF3080F08F
:100B10001B81994240F21881023F2B445B1AA4B218
:100B2000B3FBFEF00EFB103344EA034400FB0CFC65
:100B3000A44509D92C1900F1FF3380F00781A445A1
:100B400040F2048102382C4440EA0740A4EB0C0434
:100B500000271EB1D4400023C6E900433946BDE852
:100B6000F0878B4209D9002E00F0EB800027C6E900
:100B7000000138463946BDE8F087B3FA83F7002F05
:100B800047D18B4202D3824200F2FA80841A61EB91
:100B9000030301209846002EE0D0C6E90048DDE7B7
:100BA00002B9FFDEB2FA82F2002A40F08F80491BC0
:100BB0004FEA154E1FFA85F80127B1FBFEFC230C06
:100BC0000EFB1C1143EA014308FB0CF1994207D9C3
:100BD000EB180CF1FF3002D2994200F2CD8084462E
:100BE000591AA3B2B1FBFEF00EFB101443EA044401
:100BF00008FB00F8A04507D92C1900F1FF3302D2F9
:100C0000A04500F2B6801846A4EB080440EA0C4068
:100C10009FE7C7F1200CBB4022FA0CFE4EEA030E00
:100C200001FA07F420FA0CF521FA0CF34FEA1E48FA
:100C30002543B3FBF8F92C0C08FB19331FFA8EFA85
:100C400044EA034309FB0AF49C4202FA07F200FA61
:100C500007F10BD91EEB030309F1FF3080F0878009
:100C60009C4240F28480A9F1020973441B1BADB27F
:100C7000B3FBF8F008FB103345EA034400FB0AFA23
:100C8000A24508D91EEB040400F1FF336BD2A24544
:100C900069D90238744440EA0940A0FB0289A4EBF8
:100CA0000A044C45C2464B4654D351D0002E69D05D
:100CB000B1EB0A0564EB030404FA0CFCFD40FC40B4
:100CC0004CEA0505C6E90054002747E7C2F12003B6
:100CD00020FA03F7954001FA02F021FA03F34FEAF4
:100CE000154E3843010CB3FBFEF71FFA85F80EFBD7
:100CF000173341EA034107FB08F38B4204FA02F47D
:100D000007D9691807F1FF3C2FD28B422DD9023F3A
:100D10002944CB1A81B2B3FBFEF00EFB103341EA3B
:100D2000034100FB08F38B4207D9691800F1FF3C2F
:100D300017D28B4215D902382944C91A40EA07470D
:100D40003BE73746304609E70746E7E61846FBE645
:100D50004145ABD2B8EB020A69EB0E0201381346EB
:100D6000A4E76046E9E7184695E76746D1E781467C
:100D70007CE702382C4447E7ACF1020C2B442FE708
:100D8000384608E73746E9E6704700BF034613F8E0
:100D9000012B002AFBD1181A01387047000000000F
:100DA00001F0FF01102A2BDB10F0070F08D010F81C
:100DB000013B013A8B422DD010F0070F42B3F6D120
:100DC000F0B441EA012141EA014122F007047FF039
:100DD00000070023F0E80256083C85EA010586EA90
:100DE000010685FA47F5A3FA87F586FA47F6A5FACC
:100DF00087F68EB9EED1F0BC01F0FF0102F00702D8
:100E000032B110F8013B013A83EA010313B1F8D182
:100E10000020704701387047002D06BF3546033863
:100E2000073815F0010F07D1013015F4807F02BF9C
:100E3000013015F4C03F0130F0BC0138704700BFED
:100E40004FF0FF3C06E000BF4FF0010C02E000BF96
:100E50004FF0010C4DF804CD4FEA410C7FEA6C5C79
:100E60004FEA430C18BF7FEA6C5C1BD001B050EA1C
:100E7000410C0CBF52EA430C91EA030F02BF90EA07
:100E8000020F0020704710F1000F91EA030F58BFC6
:100E9000994208BF90422CBFD8176FEAE37040F028
:100EA000010070474FEA410C7FEA6C5C02D150EAC6
:100EB000013C07D14FEA430C7FEA6C5CD6D152EA81
:100EC000033CD3D05DF8040B704700BF8446104646
:100ED00062468C461946634600E000BF01B5FFF745
:100EE000B7FF002848BF10F1000F01BD4DF808ED15
:100EF000FFF7F4FF0CBF012000205DF808FB00BFE6
:100F00004DF808EDFFF7EAFF34BF012000205DF83F
:100F100008FB00BF4DF808EDFFF7E0FF94BF01208C
:100F200000205DF808FB00BF4DF808EDFFF7CEFF8D
:100F300094BF012000205DF808FB00BF4DF808EDCC
:100F4000FFF7C4FF34BF012000205DF808FB00BF9D
:100F50004FEA410C7FEA6C5C02D150EA013C0AD1B5
:100F60004FEA430C7FEA6C5C02D152EA033C02D1A7
:100F70004FF0000070474FF0010070474FEA410208
:100F800012F5001215D211D56FF47873B3EB6252DB
:100F900012D94FEAC12343F0004343EA505311F002
:100FA000004F23FA02F018BF404270474FF0000094
:100FB000704750EA013005D111F0004008BF6FF0D2
:100FC000004070474FF00000704700BF08B5032095
:100FD00000F02EF800200AF03BFA0AF0FFF800209B
:100FE00008BD0000034A1168034B1B780B441360D3
:100FF000704700BFB452002000000020014B186869
:10100000704700BFB452002038B50446FFF7F6FF22
:101010000546B4F1FF3F02D0044B1B781C44FFF798
:10102000EDFF401BA042FAD338BD00BF00000020F6
:101030000649CB6823F4E0631B041B0C000200F498
:10104000E0600343024A1A43CA60704700ED00E0C3
:101050000000FA0530B4154BDB68C3F30223C3F17B
:101060000704042C28BF04241D1D062D14D9033B9E
:101070004FF0FF3505FA04F421EA0401994005FA1E
:1010800003F322EA03031943002807DB0901C9B26D
:10109000074B195430BC70470023E9E700F00F00FC
:1010A0000901C9B2034B1954F4E700BF00ED00E099
:1010B00000E400E014ED00E0002807DB00F01F0270
:1010C000400901239340024A42F82030704700BF94
:1010D00000E100E05079137943EA002307480B5000
:1010E000D07893781B0443EA0063507843EA0023E6
:1010F00012781343024A8B50704700BF4080024071
:1011000044800240016841F218028B5843F40053B6
:101110008B507047016841F218028B5823F400533A
:101120008B507047016841F218028B5843F002035C
:101130008B507047016841F218028B5823F002036C
:101140008B50704770B59EB0044629B14FF40063D0
:10115000C3604FF480438360E369002B68D14FF490
:101160008063079321680B68374A1A40A368E068D8
:1011700003430798034343F4007313430B6023684E
:101180001D680120FFF740FF23681D60236840228F
:101190005A6023685D680120FFF736FF23685D60B1
:1011A000236800259D602368DD602268936923F031
:1011B000BE031B041B0C43F08003936123689E69EC
:1011C0000120FFF721FF23689E612368DD6123680A
:1011D000DD690120FFF718FF2368DD61216841F216
:1011E00018054B59194A1A40194B13434B512368A0
:1011F0005E590120FFF708FF23685E51236803F55D
:101200008053144A1A60236803F580531D68012037
:10121000FFF7FAFE236803F580531D60A369012BD5
:1012200009D0626900212046FFF754FF1EB070BD4F
:101230000023079396E7216841F21C028858064B69
:1012400003438B50EDE700BF0F8120FF233FDEF803
:10125000040020028020C1024000010010B582B0CD
:101260000446002301930268136843F008031360E7
:1012700003681B6801930120FFF7C6FE2368019AEB
:101280001A6002B010BD10B582B00446002301936D
:101290000268136843F00403136003681B6801933A
:1012A0000120FFF7B1FE2368019A1A6002B010BD59
:1012B00030B583B0054600230193026841F218045B
:1012C000135943F48013135103681B5901930120F0
:1012D000FFF79AFE2B68019A1A5103B030BD10B582
:1012E00082B00446002301930268136823F00403CC
:1012F000136003681B6801930120FFF785FE2368D4
:10130000019A1A6002B010BD10B582B004460023E5
:1013100001930268136823F00803136003681B68D5
:1013200001930120FFF770FE2368019A1A6002B052
:1013300010BDF0B490F84540012C31D0012480F864
:101340004540022480F84440C162002401E0F96075
:1013500001349C4217D265014F194FF480164E514B
:1013600040F2F45606FB0426BE60C6691EB94E590B
:1013700046F440064E515D1EA542E8D9651C01EBBE
:101380004515FD60E4E7026841F21003D1500123E6
:1013900080F84430002380F845301846F0BC704790
:1013A0000220FBE7F0B490F84540012C2ED0012438
:1013B00080F84540022480F844408162002401E026
:1013C000E96001349C4214D266018D194FF0004748
:1013D0008F5144F2F4566E6040F2F45606FB042638
:1013E000AE605E1EA642EBD9661C01EB4616EE60AF
:1013F000E7E7026841F20C03D150012380F8443042
:10140000002380F845301846F0BC70470220FBE707
:1014100090F84530012B00F08580012380F845309D
:10142000022380F84430B1B1C36A1A68002A1ADB7B
:1014300030B440F2F45291421DD93B4AA2FB014222
:10144000920A40F2F45404FB121404B10132012A4E
:1014500011D0002347E0012380F84430002280F8B7
:10146000452018467047122380F84430002380F846
:101470004530012070471A6842F040521A60C36A32
:10148000C1F30C015960C26A136843F00043136052
:10149000C36ADB68C362036841F214029A5812F00F
:1014A000040F08D041F2140204219950026841F25D
:1014B00004030021D150012380F84430002380F838
:1014C0004530184630BC7047C56A2C6844F08054DB
:1014D0002C6011E0C56A2C6844F000442C60C46A9A
:1014E000E468C46201339A42D5D9C56A2C6824F0F5
:1014F00040542C60002BE7D0C46A40F2F45565607C
:10150000541E9C42E6D1C56A2C6844F000542C60FD
:10151000064C04FB021404F2F454C56AC4F30C0430
:101520006C60D7E7022070470BB002AC0CFAFFFFEB
:1015300090F84530012B45D0012380F84530022337
:1015400080F844300021836A1A68002A32DB0329BC
:1015500030D801311A6802F44072B2F5007F09D028
:101560001A6812F4407F0BD1826B01328263DB6810
:101570008362E8E7036301228263DB688362E2E758
:101580004363826B01328263012A11D01A68C2F36D
:101590000D42043AC263026B92680264DB688362A4
:1015A000012380F84430002380F845301846704706
:1015B0000363EBE7012380F84430002280F84520E4
:1015C00018467047022070477047704710B50446B0
:1015D000036841F214029A5812F0400F11D141F2FF
:1015E00014029B5813F0010F19D1226841F2140321
:1015F0004FF48031D1502268D35813F4004F1BD1DF
:1016000010BD08F031FE226841F214034021D15090
:10161000012384F84430002384F84530E5E7FFF7E0
:10162000D3FF2168012341F214028B5084F8443027
:10163000002384F84530D8E72046FFF7C6FF22682C
:1016400041F214034FF40041D150012384F8443097
:10165000002384F84530D3E7F8B590F84430DBB286
:10166000822B33D016460546822380F84430026828
:10167000136903F01C03048AE402A4B223438C011F
:1016800004F4F8641C4344F001041461FFF7B6FC51
:10169000074614F0010F10D0FFF7B0FCC01BB0F5E7
:1016A000803F02D22B681C69F3E7012385F84430A0
:1016B000002385F84530032007E02B685B699BB267
:1016C0003360012385F844300020F8BD0220FCE798
:1016D00090F84430DBB2422B32D070B5054642233D
:1016E00080F844300068036903F01C032C8AE4028C
:1016F000A4B223438C0104F4F8641C4344F00304B3
:1017000092B242612B681C61FFF778FC064614F028
:10171000010F10D0FFF772FC801BB0F5803F02D2A2
:101720002B681C69F3E7012385F84430002385F812
:101730004530032003E0012385F84430002070BDCC
:101740000220704770B582B000230193002800F09A
:101750000C81044690F84430002B32D0844B5A6CF4
:1017600042F480425A645B6C03F480430093009B14
:10177000804B5A6822F400025A605A68216A0A4370
:101780005A60236803F580531A6842F001021A6018
:10179000FFF734FC0546236803F58052126812F007
:1017A000010F13D0FFF72AFC401BB0F5FA7FF2D9E6
:1017B000032584F84450002384F84530284602B0BD
:1017C00070BD80F8453008F0BFFCC7E71D6925F003
:1017D0001C0500F0DDFE684B0344684A934255D86F
:1017E00045F0080523681D614FF4004200212046A2
:1017F000FFF76EFF0546002860D1FF20FFF704FCCD
:101800006368002B00F09180FFF7F8FB064601AA01
:1018100001212046FFF720FFFFF7F0FB801B41F27C
:101820008833984252D8019B13F0040FEFD04FF445
:10183000805200212046FFF74BFF002852D1FFF7CE
:10184000DDFB064601AA01212046FFF705FFFFF751
:10185000D5FB801B41F2883398424BD8019B13F093
:10186000200FEFD001AA1F212046FFF7F5FE002828
:101870004CD1019B13F0100F50D04FF40062E26086
:1018800013F0040F4DD00023A3605EE03C4B0344F3
:101890003C4A934202D845F00C05A3E73A4B034477
:1018A0003A4A93429ED93A4B03443A4A934202D869
:1018B00045F0040596E745F0100593E70121204621
:1018C000FFF740FC012584F8445077E701212046CA
:1018D000FFF738FC012384F84430002384F84530B6
:1018E00003256BE701212046FFF72CFC012584F836
:1018F000445063E701212046FFF724FC012384F8CC
:101900004430002384F84530032557E70121204661
:10191000FFF718FC012584F844504FE70022E260ED
:10192000AEE74FF48043A3600FE0E268C2F3CF025A
:10193000A368C3F34F031A4300212046FFF7C8FEF4
:1019400058B940F6FF70FFF75FFB00212046FFF714
:10195000F9FB012384F8443030E701212046FFF7EA
:10196000F1FB012584F8445028E7012526E700BF54
:10197000003802400038014000D3CEFEBFE1E40051
:1019800040F1E9FD3F787D0100796CFCFF5962026E
:10199000001F0AFA7FF0FA0238B590F84530012BA3
:1019A0001AD00446012580F84550022380F84430BF
:1019B000FFF754FC2046FFF766FC2046FFF778FC53
:1019C0002046FFF79FFB2046FFF7ACFB84F844500E
:1019D000002084F8450038BD0220FCE738B590F8B7
:1019E0004530012B1AD00446012580F845500223CA
:1019F00080F84430FFF78EFB2046FFF79BFB204624
:101A0000FFF76DFC2046FFF753FC2046FFF77CFCF8
:101A100084F84450002084F8450038BD0220FCE7DB
:101A200090F84530012B00F08E8070B50C460546CD
:101A3000012380F84530022380F84430002971D01A
:101A40000268136841491940236860680343A0682D
:101A50000343E0680343A8680343206903436069C4
:101A60000343E8680343A0690343E0690343206A32
:101A70000343606A0343A06A03430B4313602B686C
:101A80001E680120FFF7C0FA2B681E60E36A226B14
:101A90001343626B1343A26B1343E26B1343226C39
:101AA0001343626C1343A16C2A680B4353602B6889
:101AB0005E680120FFF7A8FA2B685E602B68E26C75
:101AC0009A602B68226DDA6029688A6922F0BE026A
:101AD0001204120C606DA36D43EA0043E06D0343F2
:101AE000206E0343606E0343A06E034313438B6178
:101AF0002B689E690120FFF787FA2B689E61E36ED1
:101B0000216F2A680B43D3612B68DC690120FFF742
:101B10007BFA2B68DC61012385F84430002085F8CE
:101B2000450070BD01680A6822F490428368C0686D
:101B3000034313430B602B681C680120FFF764FA12
:101B40002B681C60E7E70220704700BF0F8120FF71
:101B500000230F2B00F2E180F0B583B039E00922B9
:101B600000E00022B2403A4302346C4E46F8242092
:101B70006B4A1468EA4302EA04064F6817F4803F90
:101B800001D045EA0406664C2660646802EA040651
:101B90004F6817F4003F01D045EA0406604C6660C8
:101BA000A46802EA04064F6817F4801F01D045EAD2
:101BB00004065B4CA660E46822404E6816F4001FE1
:101BC00001D045EA0402564CE26001330F2B00F2CB
:101BD000A28001229A400C6804EA0205AA42F4D1CC
:101BE0004C68661E112C18BF012E01D9122C12D17F
:101BF00086685F000324BC4026EA0406CC68BC402B
:101C000034438460466826EA02064C68C4F3001236
:101C10009A4032434260C2685F000326BE40F643EA
:101C200032408C68BC401443C4604A68122A18BF12
:101C3000022A13D1DC08083450F824E003F007022C
:101C40004FEA820C0F2202FA0CF22EEA020E0A6907
:101C500002FA0CF242EA0E0240F824200268164012
:101C60004A6802F00302BA40324302604A6812F046
:101C7000805FAAD02B4A546C44F480445464526C64
:101C800002F480420192019A9C08A61C234A52F851
:101C9000267003F0030296000F22B24027EA0207E3
:101CA000214A90423FF45DAF02F58062904222D01B
:101CB00002F58062904220D002F5806290421ED0F0
:101CC00002F5806290421CD002F5806290421AD0E8
:101CD00002F58062904218D002F58062904216D0E0
:101CE00002F58062904214D002F5806290423FF487
:101CF00036AF0A2236E7012234E7022232E7032216
:101D000030E704222EE705222CE706222AE70722E5
:101D100028E7082226E703B0F0BD704700380140ED
:101D2000003C0140003802400000024012B90904A2
:101D30008161704781617047F0B58BB0002800F079
:101D400091800446056890F8BD3323B3032384F8DB
:101D5000BD33EB6B13F4807F01D100232361206836
:101D600001F0F2FE254655F8107B6E460FCD0FC6EA
:101D70000FCD0FC695E8030086E80300231D0ECBA8
:101D8000384601F0A3FE58B1022384F8BD33012583
:101D900028460BB0F0BD80F8BC3309F011FBD5E745
:101DA0000021206801F0D6FE002315E0D900C81AF2
:101DB00082002244012082F83D0082F83C30A2F8E3
:101DC0004230002082F83F0050649064CA1A9100AB
:101DD000214408650133DBB26568AB42E6D30023DA
:101DE00015E0D800C11A8A002244002182F8FD11B2
:101DF00082F8FC3182F8FF11C2F80412C2F808120E
:101E0000C21A90002044C0F810120133DBB29D4288
:101E1000E7D8254655F8107B6E460FCD0FC60FCD7F
:101E20000FC695E8030086E80300231D0ECB384655
:101E300001F0D6FE054660B9002384F8383001234E
:101E400084F8BD33636A012B08D0206801F09AFF43
:101E50009EE7022384F8BD33012599E7204600F070
:101E600003F8F2E7012593E7024603680121C0F871
:101E7000FC13002082F8F4039A6942F000629A6130
:101E8000596D024A0A435A65704700BF03000010AB
:101E9000024A136843F48073136070470070004077
:101EA00010B582B01B4B1A6C42F080521A641B6C46
:101EB00003F080530193019B174A136843F4803366
:101EC0001360FFF79BF80446134B5B6813F4803FE5
:101ED00008D1FFF793F8001BB0F57A7FF4D90320FF
:101EE00002B010BD0C4A136843F400331360FFF7CF
:101EF00085F80446084B5B6813F4003F07D1FFF7F1
:101F00007DF8001BB0F57A7FF4D90320E8E70020C4
:101F1000E6E700BF0038024000700040002800F0F3
:101F2000098270B582B00446036813F0010F29D00E
:101F3000A24B9B6803F00C03042B1AD09F4B9B68A9
:101F400003F00C03082B0FD06368B3F5803F40D03B
:101F5000002B54D1994B1A6822F480321A601A6807
:101F600022F480221A6039E0944B5B6813F4800FEE
:101F7000EAD0924B1B6813F4003F03D06368002B38
:101F800000F0DA81236813F0020F75D08B4B9B6849
:101F900013F00C0F5ED0894B9B6803F00C03082BE9
:101FA00053D0E368002B00F08A80844A136843F022
:101FB00001031360FFF722F80546804B1B6813F0FE
:101FC000020F73D1FFF71AF8401B0228F5D903203E
:101FD000B5E17A4A136843F48033136063682BB326
:101FE000FFF70CF80546754B1B6813F4003FC9D189
:101FF000FFF704F8401B6428F5D903209FE1B3F5EF
:10200000A02F09D06D4B1A6822F480321A601A682A
:1020100022F480221A60E1E7684B1A6842F48022B9
:102020001A601A6842F480321A60D7E7FEF7E6FFBA
:102030000546624B1B6813F4003FA3D0FEF7DEFF9A
:10204000401B6428F5D9032079E15C4B5B6813F4ED
:10205000800FA6D1594B1B6813F0020F04D0E36820
:10206000012B01D001206AE1544A136823F0F803E0
:10207000216943EAC1031360236813F0080F46D0B7
:10208000636983B34D4A536F43F001035367FEF70F
:10209000B5FF0546494B5B6F13F0020F37D1FEF7D2
:1020A000ADFF401B0228F5D9032048E1434A1368DD
:1020B00023F0F803216943EAC1031360DCE73F4AD8
:1020C000136823F001031360FEF798FF05463B4BAE
:1020D0001B6813F0020FCFD0FEF790FF401B0228C1
:1020E000F5D903202BE1354A536F23F001035367E1
:1020F000FEF784FF0546314B5B6F13F0020F06D0ED
:10210000FEF77CFF401B0228F5D9032017E1236866
:1021100013F0040F7ED0294B1B6C13F0805F1ED18F
:10212000264B1A6C42F080521A641B6C03F08053E9
:102130000193019B0125224B1B6813F4807F10D073
:10214000A368012B21D0002B3CD11C4B1A6F22F02D
:1021500001021A671A6F22F004021A671AE00025BA
:10216000E9E7174A136843F480731360FEF746FFEC
:102170000646134B1B6813F4807FE1D1FEF73EFF48
:10218000801B6428F5D90320D9E00C4A136F43F073
:1021900001031367A3685BB3FEF730FF0646074BE6
:1021A0001B6F13F0020F34D1FEF728FF801B41F2A2
:1021B00088339842F3D90320C1E000BF00380240C1
:1021C00000700040052B09D0604B1A6F22F001020D
:1021D0001A671A6F22F004021A67DBE75B4B1A6F6B
:1021E00042F004021A671A6F42F001021A67D1E73F
:1021F000FEF704FF0646554B1B6F13F0020F08D085
:10220000FEF7FCFE801B41F288339842F3D903208D
:1022100095E0FDB9A369002B00F090804B4A9268CD
:1022200002F00C02082A58D0022B19D0474A136832
:1022300023F080731360FEF7E1FE0446434B1B68F6
:1022400013F0007F47D0FEF7D9FE001B0228F5D916
:10225000032074E03D4A136C23F080531364D9E7E4
:102260003A4A136823F080731360FEF7C7FE0546F1
:10227000364B1B6813F0007F06D0FEF7BFFE401BF5
:102280000228F5D903205AE0E369226A1343626AFF
:1022900043EA8213A26A5208013A43EA0243E26A1D
:1022A00043EA026343F00053284A5360136843F043
:1022B00080731360FEF7A2FE0446244B1B6813F0E4
:1022C000007F06D1FEF79AFE001B0228F5D90320F5
:1022D00035E0002033E0002031E01C4A5268012B39
:1022E0002FD002F48003E1698B4201D0012026E067
:1022F00002F03F03216A8B4201D001201FE0616A96
:1023000047F6C0731340B3EB811F01D0012016E0E4
:1023100002F44031A36A5B08013BB1EB034F01D0EB
:1023200001200CE002F07062E36AB2EB036F0AD0A6
:10233000012004E001207047012000E0002002B0ED
:1023400070BD0120FBE70020F9E700BF0038024024
:10235000324B9B6803F00C03042B5CD0082B01D09C
:102360002F4870472DE9F04B2C4B5A6802F03F0282
:102370005B6813F4800F2BD0284B5B68C3F3881382
:102380001E4600275C010025E41A65EB0705A9013C
:1023900041EA9461A001001B61EB0501CB0043EA17
:1023A0005073C400A01943EB07014B0243EAD0531A
:1023B0004402204619460023FEF768FB174B5B6872
:1023C000C3F3014301335B00B0FBF3F0BDE8F08BD6
:1023D000124B5B68C3F388131E4600275C0100257F
:1023E000E41A65EB0705A90141EA9461A001001B0D
:1023F00061EB0501CB0043EA5073C400A01943EB25
:1024000007018B0243EA90538402204619460023B9
:10241000FEF73CFBD2E70348704700BF003802409C
:102420000024F40000127A00002800F0A38070B5A8
:102430000446524B1B6803F00F038B420CD24F4AE9
:10244000136823F00F030B431360136803F00F03AB
:102450008B4201D0012070BD236813F0020F17D00A
:1024600013F0040F04D0464A936843F4E05393609A
:10247000236813F0080F04D0414A936843F4604383
:1024800093603F4A936823F0F003A068034393608E
:102490000D46236813F0010F31D06368012B20D063
:1024A000022B25D0364A126812F0020F64D034494C
:1024B0008A6822F0030213438B60FEF79FFD0646F5
:1024C0002F4B9B6803F00C036268B3EB820F16D0AE
:1024D000FEF794FD801B41F288339842F0D9032027
:1024E000B9E7274A126812F4003FE0D10120B2E7B1
:1024F000234A126812F0007FD9D10120ABE71F4BAD
:102500001B6803F00F03AB420CD91C4A136823F07D
:102510000F032B431360136803F00F03AB4201D08A
:10252000012098E7236813F0040F06D0144A93683B
:1025300023F4E053E1680B439360236813F0080F22
:1025400007D00F4A936823F46043216943EAC1032B
:102550009360FFF7FDFE0A4B9B68C3F30313094A20
:10256000D35CD840084B1860084B186808F070FF1F
:10257000002070E70120704701206CE7003C02401A
:102580000038024070DE00083C00002004000020FB
:10259000014B1868704700BF3C00002008B5FFF7EA
:1025A000F7FF044B9B68C3F38223034AD35CD840F4
:1025B00008BD00BF0038024080DE000808B5FFF704
:1025C000E7FF044B9B68C3F34233034AD35CD84014
:1025D00008BD00BF0038024080DE00080F23036002
:1025E0000B4B9A6802F0030242609A6802F0F00214
:1025F00082609A6802F4E052C2609B68DB0803F4D0
:10260000E0530361034B1B6803F00F030B6070473B
:1026100000380240003C0240F0B583B00446036835
:1026200013F0010F0CD0AF4B9A6822F400029A60AD
:102630009A68416B0A439A60436BC3B1002600E07D
:102640000026236813F4002F15D0A64AD2F88C3048
:1026500023F44013E16B0B43C2F88C30E36BB3F50A
:10266000801F06D0002B00F01B81002504E001260E
:10267000E7E70126F6E70025236813F4801F0FD053
:10268000984AD2F88C3023F44003216C0B43C2F8F3
:102690008C30236CB3F5800F00F0048103B9012561
:1026A000236813F0807F00D0012613F0200F40F044
:1026B000FB80236813F0100F0CD08A4BD3F88C20CA
:1026C00022F08072C3F88C20D3F88C20A16B0A43CF
:1026D000C3F88C20236813F4804F08D0814AD2F8C5
:1026E000903023F44033616E0B43C2F8903023687E
:1026F00013F4004F08D07B4AD2F8903023F44023E3
:10270000A16E0B43C2F89030236813F4803F08D0C9
:10271000744AD2F8903023F44013E16E0B43C2F8B0
:102720009030236813F4003F08D06E4AD2F89030FE
:1027300023F44003216F0B43C2F89030236813F059
:10274000400F08D0674AD2F8903023F00303616C41
:102750000B43C2F89030236813F0800F08D0614A11
:10276000D2F8903023F00C03A16C0B43C2F89030E8
:10277000236813F4807F08D05A4AD2F8903023F0AF
:102780003003E16C0B43C2F89030236813F4007FF0
:1027900008D0544AD2F8903023F0C003216D0B4387
:1027A000C2F89030236813F4806F08D04D4AD2F8F5
:1027B000903023F44073616D0B43C2F8903023686E
:1027C00013F4006F08D0474AD2F8903023F44063E6
:1027D000A16D0B43C2F89030236813F4805F08D0DA
:1027E000404AD2F8903023F44053E16D0B43C2F8D5
:1027F0009030236813F4005F08D03A4AD2F8903042
:1028000023F44043216E0B43C2F89030236813F445
:10281000800F08D0334AD2F8903023F08063A16F44
:102820000B43C2F89030236813F4001F0DD02D4ADB
:10283000D2F8903023F00063E16F0B43C2F8903080
:10284000E36FB3F1006F00F09980236813F0080F75
:1028500000D0012513F4802F08D0224AD2F89030FE
:1028600023F04073616F0B43C2F89030236813F478
:10287000000F09D01B4AD2F8903023F08053D4F8CF
:1028800080100B43C2F89030002E79D12368B3F149
:10289000007F75D0002D40F00681002003B0F0BD10
:1028A0000125E9E60126F9E60E4B1A6C42F080524A
:1028B0001A641B6C03F080530193019B0A4A13684E
:1028C00043F480731360FEF799FB0746064B1B68C1
:1028D00013F4807F0AD1FEF791FBC01B6428F5D961
:1028E0000320DBE70038024000700040B34B1B6F51
:1028F00013F4407315D0226B02F440729A4210D048
:10290000AE4B1A6F22F44072196F41F4803119678F
:10291000196F21F4803119671A671B6F13F0010FCB
:1029200012D1236B03F44072B2F5407F1DD0A34A4D
:10293000936823F4F8139360A0490B6F226BC2F3E2
:102940000B0213430B67B4E6FEF758FB07469B4B9D
:102950001B6F13F0020FE4D1FEF750FBC01B41F2D6
:1029600088339842F3D9032098E79448826822F488
:10297000F812934919400A438260DDE7012564E7B4
:102980008E4A136823F080631360FEF737FB064618
:102990008A4B1B6813F0006F06D0FEF72FFB801BDD
:1029A0006428F5D9032079E7236813F0010F13D0C9
:1029B000636B8BB9814AD2F88430D2F88410606896
:1029C00003F4403343EA801301F070610B43A168C4
:1029D00043EA0173C2F88430236813F4002F03D054
:1029E000E26BB2F5801F06D013F4801F1ED0236C5B
:1029F000B3F5800F1AD1714AD2F88430D2F884101E
:102A0000606803F4403343EA8013E06843EA0063FC
:102A100001F0E0410B43C2F88430D2F88C3023F04F
:102A20001F03616A01390B43C2F88C30236813F02D
:102A3000807F11D0614AD2F88400D2F88410666891
:102A400023691B0443EA861300F07060034301F01E
:102A5000E0410B43C2F88430236813F0007F0DD0AF
:102A6000626823691B0443EA8213E26843EA026353
:102A7000A26843EA0273514AC2F884304F4A13688D
:102A800043F080631360FEF7B9FA06464B4B1B68B0
:102A900013F0006F7FF4FEAEFEF7B0FA801B6428DF
:102AA000F4D90320FAE6454A136823F080531360F3
:102AB000FEF7A4FA0546414B1B6813F0005F06D0F1
:102AC000FEF79CFA401B6428F5D90320E6E623684C
:102AD00013F4002F01D0E26B22B113F4801F1DD03C
:102AE000236CDBB9354AD2F88830D2F88810606997
:102AF00003F4403343EA8013A06943EA006301F022
:102B0000E0410B43C2F88830D2F88C3023F4F853FC
:102B1000A16A013943EA0123C2F88C30236813F417
:102B2000001F03D0E36FB3F1006F31D0236813F0BF
:102B3000080F19D0214AD2F88810D2F8883060697D
:102B400003F4403343EA801301F070610B43E16901
:102B500043EA0173C2F88830D2F88C3023F4403352
:102B6000E16A0B43C2F88C30144A136843F0805377
:102B70001360FEF743FA0446104B1B6813F0005F26
:102B800019D1FEF73BFA001B6428F5D9032085E62E
:102B90000A4AD2F88800D2F888106569236A1B04B3
:102BA00043EA851300F07060034301F0E0410B43FA
:102BB000C2F88830BAE7002070E600BF0038024053
:102BC000FFFCFF0F70B4036A23F001030362036A82
:102BD00042688569124C2C400D68254323F002049D
:102BE0008B6823430F4C104EB04218BFA0420CBF5D
:102BF0000124002405D123F00803CE68334323F0D9
:102C000004032CB122F440724C6914438A692243B4
:102C1000426085614A684263036270BC704700BFCE
:102C20008CFFFEFF000001400004014070B4036A05
:102C300023F480730362036A4268C569144C2C4014
:102C40000E68264323F400738C6843EA0423114C76
:102C5000114DA84218BFA0420CBF0124002406D188
:102C600023F40063CD6843EA052323F480633CB179
:102C700022F440524C6942EA04128C6942EA04127E
:102C80004260C6614A68C263036270BC704700BF9D
:102C90008CFFFEFF000001400004014070B4036A95
:102CA00023F480530362036A4468C5690D4A2A40CD
:102CB0000D6842EA052223F400538D6843EA053388
:102CC000094E0A4DA84218BFB04204D124F48044F2
:102CD0004D6944EA85144460C2614A680264036233
:102CE00070BC7047FF8CFFFE0000014000040140F3
:102CF00070B4036A23F480330362036A4268446D4C
:102D00000D4D25400C682C4323F400338D6843EAB5
:102D100005430A4E0A4DA84218BFB04204D122F41E
:102D200080324D6942EA0522426044654A68826504
:102D3000036270BC704700BF8FFFFEFF00000140C0
:102D40000004014070B4036A23F480130362036A31
:102D50004468456D0D4A2A400D6842EA052223F475
:102D600000138D6843EA0553094E0A4DA84218BF67
:102D7000B04204D124F480244D6944EA852444609F
:102D800042654A68C265036270BC7047FF8FFFFEF0
:102D9000000001400004014010B4036A046A24F0FA
:102DA00001040462846924F0F00444EA021223F06E
:102DB0000A030B43826103625DF8044B704710B451
:102DC000036A23F0100303628469036A24F47044E5
:102DD00044EA023223F0A00343EA01138261036252
:102DE0005DF8044B70470000022380F83D30026814
:102DF0009168084B0B40062B18BFB3F5803F03D0FA
:102E0000136843F001031360012380F83D30002074
:102E1000704700BF070001000268D36843F0010358
:102E2000D36002689168064B0B40062B18BFB3F5C0
:102E3000803F03D0136843F0010313600020704704
:102E400007000100704770477047704710B504468F
:102E500003681A6912F0020F11D0DA6812F0020F3B
:102E60000DD06FF002021A610123037703689B699A
:102E700013F0030F79D0FFF7E6FF002323772368D1
:102E80001A6912F0040F12D0DA6812F0040F0ED093
:102E90006FF004021A610223237723689B6913F4FD
:102EA000407F68D02046FFF7CEFF002323772368BA
:102EB0001A6912F0080F12D0DA6812F0080F0ED05B
:102EC0006FF008021A61042323772368DB6913F08B
:102ED000030F57D02046FFF7B6FF00232377236860
:102EE0001A6912F0100F12D0DA6812F0100F0ED01B
:102EF0006FF010021A61082323772368DB6913F44B
:102F0000407F46D02046FFF79EFF002323772368AB
:102F10001A6912F0010F03D0DA6812F0010F3FD1E5
:102F200023681A6912F0800F03D0DA6812F0800F5C
:102F30003DD123681A6912F4807F03D0DA6812F059
:102F4000800F3BD123681A6912F0400F03D0DA6872
:102F500012F0400F39D123681A6912F0200F03D004
:102F6000DA6812F0200F37D110BDFFF76BFF204653
:102F7000FFF76AFF81E72046FFF764FF2046FFF76F
:102F800063FF92E72046FFF75DFF2046FFF75CFFF7
:102F9000A3E72046FFF756FF2046FFF755FFB4E7AB
:102FA0006FF001021A61204608F00CF9B8E76FF0E3
:102FB00080021A61204600F0AAFABAE76FF4807224
:102FC0001A61204600F0A4FABCE76FF040021A61D3
:102FD0002046FFF73AFFBEE76FF020021A61204655
:102FE00000F094FAC0E7000070B403683A4CA042C5
:102FF00014BF00240124B0F1804F14BF224644F0D6
:103000000102AAB9354DA84214BF00250125344E4E
:10301000B0420DD065B905F1804505F58235A8426D
:1030200014BF0025012506F50066B04200D01DB191
:1030300023F070034D682B43002A33D1274A904276
:1030400014BF00220122264DA8422BD052BB02F110
:10305000804202F58232904214BF0022012205F51F
:103060000065A8421ED0EAB91E4A904214BF002251
:10307000012205F59A35A84214D09AB91A4A90420D
:1030800014BF0022012205F50065A8420AD04AB902
:10309000164A904214BF00220122A5F59635A84297
:1030A00000D01AB123F44073CA68134323F080039D
:1030B0004A69134303608A68C2620A6882620C4BE1
:1030C000984214BF234644F001030BB10B6903631C
:1030D0000123436170BC70470000014000080040BC
:1030E000000400400044014000180040002000405F
:1030F00000040140A8B110B5044690F83D305BB122
:10310000022384F83D30211D2068FFF76DFF012365
:1031100084F83D30002010BD80F83C3008F0A4F861
:10312000EEE701207047A8B110B5044690F83D3095
:103130005BB1022384F83D30211D2068FFF754FF66
:10314000012384F83D30002010BD80F83C3008F0A9
:1031500065F8EEE70120704770B4036A23F01003AE
:103160000362036A42688569144C2C400D6844EA86
:10317000052523F020038C6843EA0413104C114EFC
:10318000B04218BFA0420CBF0124002406D123F096
:103190008003CE6843EA061323F040033CB122F4D7
:1031A00040624C6942EA84028C6942EA84024260CD
:1031B00085614A688263036270BC7047FF8CFFFEC2
:1031C000000001400004014038B590F83C30012B6C
:1031D00000F092800D460446012380F83C30022323
:1031E00080F83D30142A1ED8DFE802F00B1D1D1DAB
:1031F000241D1D1D381D1D1D4B1D1D1D5F1D1D1D6D
:1032000072000068FFF7DEFC2268936943F0080350
:1032100093612268936923F00403936122689369A0
:1032200029690B439361012384F83D30002084F821
:103230003C0038BD0068FFF78FFF2268936943F4B4
:10324000006393612268936923F480639361226829
:103250009369296943EA01239361E4E70068FFF772
:10326000E5FC2268D36943F00803D3612268D3697F
:1032700023F00403D3612268D36929690B43D36126
:10328000D1E70068FFF70AFD2268D36943F40063C1
:10329000D3612268D36923F48063D3612268D36940
:1032A000296943EA0123D361BDE70068FFF720FDE8
:1032B0002268536D43F0080353652268536D23F071
:1032C000040353652268536D29690B435365AAE7CC
:1032D0000068FFF737FD2268536D43F400635365C0
:1032E0002268536D23F4806353652268536D296906
:1032F00043EA0123536596E702209AE710B48468F5
:1033000024F47F4442EA03230B43234383605DF8A4
:10331000044B704710B50468A26822F070024B6835
:1033200013431F4A1A400B681343A3604B68502B8A
:1033300023D00BD9602B27D0702B2CD10B698A6836
:10334000C9680068FFF7DAFF002010BD402B22D1CA
:103350000B68052B21D003681C6A1A6A22F001024F
:103360001A620268936923F0F003096943EA0113C2
:10337000936103681C620020E7E70A6989680068B6
:10338000FFF70AFD0020E0E70A6989680068FFF797
:1033900016FD0020D9E70020D7E70120D5E700BFC0
:1033A000F8FFFEFF90F83C30012B24D010B5044606
:1033B000012380F83C30022380F83D30FFF7AAFF5C
:1033C000034688B92168CA6822F04002CA602168B1
:1033D000CA6822F48042CA60012284F83D2000229B
:1033E00084F83C20184610BD012384F83D300022AB
:1033F00084F83C20F6E702231846704710B401F029
:103400001F01012303FA01F4036A23EA04030362A0
:10341000036A8A40134303625DF8044B704700005F
:1034200010B5044601220068FFF7E8FF23680C4945
:103430000C4A934218BF8B4203D15A6C42F40042AB
:103440005A6422689168084B0B40062B18BFB3F5ED
:10345000803F03D0136843F001031360002010BDC8
:1034600000000140000401400700010090F83C30DA
:10347000012B45D070B4012380F83C30022380F842
:103480003D3003685A689D681E4E1F4CA34218BF0A
:10349000B34203D122F470024C68224322F070023E
:1034A0000C6822435A600368164AB3F1804F18BF74
:1034B000934217D0A2F57C42934213D002F580626A
:1034C00093420FD002F5806293420BD002F578420E
:1034D000934207D002F57052934203D0A2F5943282
:1034E000934204D125F080058A6815439D6001232D
:1034F00080F83D30002380F83C30184670BC70479F
:1035000002207047000001400004014070477047EE
:103510007047000010B5044683680269134342698E
:103520001343C269134301680868994A0240134370
:103530000B602268536823F44053E1680B435360E7
:10354000A269236A1A4321688B6823F4306313430A
:103550008B6023688F4A934218D08F4A934228D0B9
:103560008E4A93423DD08E4A934250D08D4A934228
:1035700062D08D4A934277D08C4A934200F08C807F
:103580008B4A934200F0A0801023B6E0894BD3F819
:10359000903003F00303032B09D8DFE803F00204A3
:1035A000AD060123A9E00423A7E00823A5E010232A
:1035B000A3E0804BD3F8903003F00C030C2B0ED813
:1035C000DFE803F0070D0D0D090D0D0DA90D0D0D13
:1035D0000B00002391E004238FE008238DE01023EB
:1035E0008BE0744BD3F8903003F03003102B0AD0EB
:1035F00006D9202B00F09180302B06D108237CE0E7
:103600001BB9002379E0042377E0102375E0694BB0
:10361000D3F8903003F0C003402B09D005D9802B9C
:103620007DD0C02B06D1082367E01BB9002364E0DE
:10363000042362E0102360E05E4BD3F8903003F483
:103640004073B3F5807F0BD007D9B3F5007F68D006
:10365000B3F5407F06D108234FE01BB900234CE0AF
:1036600004234AE0102348E0524BD3F8903003F48F
:103670004063B3F5806F0BD007D9B3F5006F52D01C
:10368000B3F5406F06D1082337E01BB9012334E0BE
:10369000042332E0102330E0464BD3F8903003F49B
:1036A0004053B3F5805F0BD007D9B3F5005F3CD032
:1036B000B3F5405F06D108231FE01BB900231CE0CF
:1036C00004231AE0102318E03A4BD3F8903003F4A7
:1036D0004043B3F5804F0BD007D9B3F5004F26D048
:1036E000B3F5404F06D1082307E01BB9002304E0DF
:1036F000042302E0102300E00223E269B2F5004F48
:1037000017D0082B00F2B380DFE803F0768B95B179
:103710009EB1B1B1A8000223EFE70223EDE7022337
:10372000EBE70223E9E70223E7E70223E5E70223C9
:10373000E3E7082B5DD8DFE803F0051F3F5C485C3A
:103740005C5C5300FEF72AFF6268530803EB4003FA
:10375000B3FBF2F39BB20020A3F110014FF6EF721E
:10376000914200F287809AB222F00F02C3F3420323
:1037700013432268D36050E0FEF720FF62685308CD
:1037800003EB4003B3FBF2F39BB20020E4E700BF7E
:10379000F369FFEF00100140004400400048004082
:1037A000004C0040005000400014014000780040F0
:1037B000007C0040003802406268304B03EB52034B
:1037C000B3FBF2F39BB20020C6E7FEF7C1FD6268CF
:1037D000530803EB4003B3FBF2F39BB20020BBE7BB
:1037E0006268530803F58033B3FBF2F39BB2002009
:1037F000B2E701200023AFE7FEF7D0FE626800EBDE
:103800005203B3FBF2F39BB20020A3F110014FF679
:10381000EF72914230D82268D3600023236663663A
:1038200010BDFEF7CBFE626800EB5203B3FBF2F370
:103830009BB20020E9E76268114B03EB5203B3FB34
:10384000F2F39BB20020E0E7FEF782FD626800EB36
:103850005203B3FBF2F39BB20020D6E76268530831
:1038600003F50043B3FBF2F39BB20020CDE7012048
:103870000023CAE70120D0E70120CEE70048E80195
:103880000024F400436A13F0010F06D00268536865
:1038900023F40033816A0B435360436A13F0020F31
:1038A00006D00268536823F48033C16A0B43536027
:1038B000436A13F0040F06D00268536823F4802390
:1038C000016B0B435360436A13F0080F06D0026884
:1038D000536823F40043416B0B435360436A13F076
:1038E000100F06D00268936823F48053816B0B435A
:1038F0009360436A13F0200F06D00268936823F4A4
:103900000053C16B0B439360436A13F0400F0AD01E
:103910000268536823F48013016C0B435360036CFB
:10392000B3F5801F0BD0436A13F0800F06D00268F6
:10393000536823F40023816C0B4353607047026883
:10394000536823F4C003416C0B435360EBE72DE94C
:10395000F04104460F4616469846069D2368DB69EB
:1039600037EA03030CBF01230023B3423AD1B5F178
:10397000FF3FF3D0FDF742FBA0EB0800A8421FD8A1
:10398000F5B123681A6812F0040FE7D0DA6912F46F
:10399000006FE3D04FF400621A622268136823F4C8
:1039A000D07313602268936823F00103936020238F
:1039B0006367A367E367002384F87030032012E095
:1039C0002268136823F4D07313602268936823F08D
:1039D0000103936020236367A367002384F870309A
:1039E000032000E00020BDE8F08110B582B004465D
:1039F0000023C367FDF702FB2268126812F0080F6C
:103A000007D120236367A367002084F8700002B009
:103A100010BD6FF07E430093034600224FF4001167
:103A20002046FFF794FF0028EBD00320EFE768B3B0
:103A300010B50446436F03B32423636722681368F9
:103A400023F0010313602046FFF764FD012813D023
:103A5000636ABBB92268536823F4904353602268B9
:103A6000936823F02A0393602268136843F00103EC
:103A700013602046FFF7B9FF10BD80F8703007F0E3
:103A800069FCD9E72046FFF7FDFEE3E70120704718
:103A9000002301330C4A934211D80269002AF8DA54
:103AA000036943F00103036100230133064A934293
:103AB00007D8026912F0010FF7D1002070470320E8
:103AC00070470320704700BF400D030084B010B55D
:103AD000044603A880E80E00089B012B1DD1A36BB0
:103AE00023F48033A363E268164B1340E360E3687A
:103AF00023F44013E3600F9B012B09D02046FFF70E
:103B0000C7FF069B012B14D0BDE8104004B07047DE
:103B1000E36843F48013E360F0E7E36843F04003B5
:103B2000E3602046FFF7B4FFA36B43F48033A36345
:103B3000E7E7A36843F00603A360A36843F020030C
:103B4000A360E1E7BFFFBDFF836823F0010383604B
:103B50000020704708B5C36823F0C043C360012943
:103B600009D069B9C36843F08043C3603220FDF7D0
:103B70004BFA002008BDC36843F00053C360F5E76B
:103B80000120F7E7890141F02001016100230133A1
:103B9000054A934205D8026912F0200FF7D10020A0
:103BA00070470320704700BF400D030010230361DE
:103BB00000230133054A934205D8026912F0100F21
:103BC000F7D1002070470320704700BF400D03006D
:103BD000D0F800381943C0F80018002070470000E2
:103BE00084B02DE9F041044607A880E80E00254680
:103BF000002306E003F1400204EB82020021516041
:103C000001330E2BF6D9119B33BBD4F8043843F0A3
:103C10000203C4F80438A36B23F40013A3632368DE
:103C200043F040032360236843F0800323600023B4
:103C3000C4F8003E04F50066D4F80038C4F8003833
:103C40000C9B012B0DD0032B1CD1099BABB9002180
:103C50002046FFF7BDFF19E0A36B43F40013A363F5
:103C6000E5E7099B23B900212046FFF7B1FF0DE0EE
:103C700001212046FFF7ACFF08E001212046FFF7B5
:103C8000A7FF03E003212046FFF7A2FF10212046F3
:103C9000FFF778FF804608B14FF001082046FFF794
:103CA00085FF08B14FF00108002333617361F361B0
:103CB0000AE0C3B94FF00060C2F8000900220A61AF
:103CC0004FF67F328A6001330799994210D905EB8C
:103CD000431202F51061D2F800090028E9DB002048
:103CE000C2F80009EAE74FF09040C2F80009E5E7A2
:103CF00000230AE0BBB14FF09047C2F8007B0022DE
:103D000002614FF67F3282600133994210D905EB90
:103D1000431202F53060D2F8007B002FEADB002767
:103D2000C2F8007BEBE74FF00067C2F8007BE6E7E4
:103D3000336923F4807333610023A3616FF0804300
:103D400063610A9B1BB9A36943F01003A361A269D5
:103D50000A4B1343A3610D9B1BB1A36943F00803F6
:103D6000A361119B012B04D04046BDE8F04104B093
:103D70007047A269024B1343A361F5E700383C800A
:103D80000400004008B5D0F8043843F00203C0F83E
:103D900004380320FDF738F9002008BDEFF3058350
:103DA0008BB9EFF3108313B9EFF311831BB10A4BF7
:103DB0001B68022B0AD0084B1B6853B9064B012223
:103DC0001A60002070476FF0050070476FF0050023
:103DD00070474FF0FF3070472C02002008B5EFF31A
:103DE0000583A3B9EFF3108313B9EFF311831BB16C
:103DF0000B4B1B68022B0DD0094B1B68012B0CD100
:103E0000074B02221A6001F00BFC002008BD6FF086
:103E10000500FBE76FF00500F8E74FF0FF30F5E72E
:103E20002C02002008B5EFF3058363B9EFF310838C
:103E300013B9EFF311831BB1044B1B68022B02D0A3
:103E400001F042FC08BD01F045FCFBE72C0200201C
:103E5000F0B587B000240594EFF3058444BBEFF37D
:103E6000108313B9EFF311831BB12D4B1B68022B89
:103E70001ED0E8B14AB31668946904B91824631EC9
:103E8000372B49D8536813F0010F47D1556995B1C5
:103E90004FEA950C93682BB1D7685B2F02D917694D
:103EA00007B1C5B953B14FF0FF35012D1AD02DB36D
:103EB000059807B0F0BD4FF4807CEBE7D36863B999
:103EC00013696BB14FF0FF35EFE7002518244FF46D
:103ED000807C2E46E9E70125E7E74FF0FF35E4E770
:103EE0000025E2E7136992680292019300940B4661
:103EF0006246314601F020FB0590D9E705AA019200
:103F000000940B461FFA8CF2314601F055FB012854
:103F1000CED000230593CBE70020CAE70020C8E7F6
:103F20002C02002008B5EFF3058383B9EFF310836B
:103F300013B9EFF311831BB1084B1B68022B09D097
:103F400008B9002008BD01F029FD0020FAE76FF054
:103F50000500F7E76FF00500F4E700BF2C02002032
:103F6000EFF30583C3B9EFF3108313B9EFF31183B4
:103F70001BB10E4B1B68022B11D010B582B004464A
:103F800001F0A2FB0190211A00290BDD01A801F02C
:103F9000ADFC002002B010BD6FF0050070476FF05F
:103FA000050070476FF00300F4E700BF2C0200200B
:103FB00070B5EFF30584002C52D1EFF3108313B9E1
:103FC000EFF311831BB1294B1B68022B4AD040B37E
:103FD000436813F0010F00D0012413F0080F43D100
:103FE000054680B3816811B1C3684F2B20D8D1B189
:103FF0004FF0FF3393BB54B3042000F0ABFD0646F3
:1040000026B14DB32968304601F0B8F8003418BF26
:104010000124002E08BF00240CB146F001063046F2
:1040200070BD2346D5E7EB687BB14FF0FF33E1E786
:1040300024B1042000F099FD0646E1E7012000F0DC
:1040400094FD0646DCE70023D4E70023D2E70120F5
:1040500000F080FD0646D3E70021D4E70026D5E72F
:104060000026DCE70026DAE70026D8E72C0200204D
:1040700020F0010200F00103EFF30580F8B9EFF33F
:10408000108010B9EFF3118018B1164800680228AB
:1040900018D0D2B110B50C4643B1104600F0EEFF77
:1040A000012815D0B4B16FF0010010BD104600F02A
:1040B0000FFF012811D094B16FF00100F5E76FF008
:1040C000050070476FF0050070476FF00300704700
:1040D0000020EAE76FF00200E7E70020E5E76FF075
:1040E0000200E2E72C020020EFF305820ABB10B5C4
:1040F00020F0010400F00100EFF3108212B9EFF399
:1041000011821AB1124A1268022A15D0BCB130B11C
:10411000204600F039FD012814D1002010BD0023F5
:104120001A461946204600F043FC01280DD1002014
:10413000F4E76FF0050070476FF00500EEE76FF0F1
:104140000300EBE76FF00200E8E76FF00200E5E73D
:104150002C02002070B582B0EFF30583002B5DD1F7
:10416000EFF3108313B9EFF311831BB1304B1B68CE
:10417000022B55D0884234BF00230123002851D0A0
:10418000002B4FD0D2B1936813B1D4684F2C17D8FD
:10419000002B49D1D368002B48D115460C46012885
:1041A00010D0A3BB00F0E0FB064626B1A5B32968FA
:1041B000304600F0E3FF304602B070BD0023ECE76C
:1041C0000123EAE7D3B903220021012000F07AFBA2
:1041D0000646211C18BF0121002E08BF002100291E
:1041E000E3D000231A461946304600F0E1FB0128CF
:1041F000DBD0304600F0ECFF0026DCE70323009321
:1042000093680022114600F000FB0646E1E7926841
:1042100000F081FB0646C8E70021C9E70026CAE78F
:104220000026C8E70026C6E70026C4E70026C2E746
:104230002C02002070B310B582B00C46EFF305835A
:1042400093B9EFF3108313B9EFF311831BB1194B3B
:104250001B68022B08D0214600F03AFE012824D02A
:104260002CB36FF0010013E0BCB9002102AA42F8A0
:10427000041D00F027FF012812D1019B9BB10E4BBA
:104280004FF080521A60BFF34F8FBFF36F8F002043
:1042900002B010BD6FF0030070476FF00300F7E746
:1042A0006FF00200F4E70020F2E70020F0E76FF083
:1042B0000200EDE72C02002004ED00E068B300B539
:1042C00083B0EFF30583A3B9EFF3108313B9EFF3D2
:1042D00011831BB1164B1B68022B0AD000231A4610
:1042E000194600F065FB01281FD1002003B05DF8DE
:1042F00004FB02A9002341F8043D00F0D5FC01288D
:104300000ED1019B7BB10B4B4FF080521A60BFF373
:104310004F8FBFF36F8F0020E8E76FF00300704707
:104320006FF00200E2E70020E0E76FF00200DDE757
:104330002C02002004ED00E070B582B0EFF305839D
:10434000002B4AD1EFF3108313B9EFF311831BB1A4
:10435000264B1B68022B42D00B1C18BF01230028E0
:104360003FD0002B3DD0144672B393684BB1D26856
:104370004F2A06D9226922B1666901FB00F5AE42D7
:104380001CD27BB14FF0FF336BBB002200F09AFAD6
:10439000054625B1FCB12168284600F0EFFE28460D
:1043A00002B070BDE3688BB9236913B14FF0FF33DE
:1043B000EAE763696BB14FF0FF33E5E7002500954D
:1043C00000F023FA0546E4E70023DDE74FF0FF3372
:1043D000DAE70023D8E70021DEE70025DFE7002544
:1043E000DDE70025DBE70025D9E700BF2C02002030
:1043F00010B582B01C46EFF30583CBB9EFF3108301
:1044000013B9EFF311831BB1214B1B68022B0FD0A3
:10441000B1FA81F35B09002808BF01237BBB224668
:1044200000F0C6FA01282DD074B36FF0010019E036
:10443000B1FA81F35B09002808BF0123A3B9B4B91D
:1044400002AA42F8043D00F0C1FB012812D1019BF1
:104450009BB1104B4FF080521A60BFF34F8FBFF3E8
:104460006F8F002002B010BD6FF00300FAE76FF00D
:104470000300F7E76FF00200F4E70020F2E76FF0C7
:104480000300EFE70020EDE76FF00200EAE700BF6E
:104490002C02002004ED00E010B582B01C46EFF3C2
:1044A0000583CBB9EFF3108313B9EFF311831BB17D
:1044B000214B1B68022B0FD0B1FA81F35B09002856
:1044C00008BF01237BBB224600F050FC01282DD001
:1044D00074B36FF0010019E0B1FA81F35B090028B1
:1044E00008BF0123A3B9B4B902AA42F8043D00F001
:1044F000E9FD012812D1019B9BB1104B4FF0805276
:104500001A60BFF34F8FBFF36F8F002002B010BD52
:104510006FF00300FAE76FF00300F7E76FF00200B7
:10452000F4E70020F2E76FF00300EFE70020EDE78B
:104530006FF00200EAE700BF2C02002004ED00E06B
:1045400010B4054B1C1D046060330B604FF4807386
:1045500013605DF8044B70472C02002010B4064B2A
:1045600003F58C64046003F2BC430B604FF40073EA
:1045700013605DF8044B70472C02002000F1080323
:1045800043604FF0FF328260C36003610023036029
:10459000704700230361704743684B609A688A60E4
:1045A0009A6851609960086103680133036070473D
:1045B00030B40D68B5F1FF3F02D000F1080202E00F
:1045C000026904E01A4653681C68AC42FAD9536881
:1045D0004B6099608A605160086103680133036031
:1045E00030BC7047036942688168916082684168A5
:1045F00051605A68824206D0002202611A68013A6C
:104600001A601868704782685A60F5E7436A23B1F8
:10461000036B1868C0F1380070470020704710B570
:10462000044601F0C7FEA26BE36B9A4204D000245B
:1046300001F0E6FE204610BD0124F9E710B504465E
:1046400001F0B8FEA36B23B1002401F0D9FE20468F
:1046500010BD0124F9E770B504461646856B026C5F
:104660005AB903681BB100200135A56370BD80688D
:1046700001F046FB0023A360F6E76EB9406806F040
:10468000FEFF226C636813446360A268934219D3EF
:10469000236863600020E7E7C06806F0F0FF226C43
:1046A0005242E3681344E36021688B4202D2A3685C
:1046B0001A44E260022E01D00020D5E725B1013D69
:1046C0000020D1E70020CFE70020CDE7026C72B1D7
:1046D00010B5C3681344C3608468A34201D3036860
:1046E000C3600C46C168204606F0C9FF10BD704784
:1046F00038B5054601F05EFE95F8454064B203E02A
:1047000001F090FA013C64B2002C08DD6B6A33B111
:1047100005F1240001F0F2F90028F3D0F0E7FF23BF
:1047200085F8453001F06CFE01F044FE95F84440F8
:1047300064B203E001F076FA013C64B2002C08DDBB
:104740002B6933B105F1100001F0D8F90028F3D03E
:10475000F0E7FF2385F8443001F052FE38BD000039
:1047600038B550B94FF0500372B683F31188BFF3D8
:104770006F8FBFF34F8F62B6FEE704460D4601F020
:1047800019FE2168E26B236C03FB0210A06000207D
:10479000A0636160013A02FB0313E360FF2384F826
:1047A000443084F84530A5B923691BB901F028FECF
:1047B000012038BD04F1100001F0A0F90028F5D067
:1047C000084B4FF080521A60BFF34F8FBFF36F8FCB
:1047D000ECE704F11000FFF7D1FE04F12400FFF72D
:1047E000CDFEE3E704ED00E038B51D46049C0B4622
:1047F00049B12260E063236401212046FFF7B0FF46
:1048000084F84C5038BD2460F4E750B94FF05003A1
:1048100072B683F31188BFF36F8FBFF34F8F62B609
:10482000FEE710B584B004468BB1081C18BF012008
:10483000002A08BF0120A8B94FF0500372B683F3D5
:104840001188BFF36F8FBFF34F8F62B6FEE74FF053
:10485000500372B683F31188BFF36F8FBFF34F8F8E
:1048600062B6FEE7B1FA81F04009002A18BF0120C4
:1048700050B94FF0500372B683F31188BFF36F8FB6
:10488000BFF34F8F62B6FEE7502003900398502885
:104890000AD04FF0500372B683F31188BFF36F8FC5
:1048A000BFF34F8F62B6FEE720461C46039B0123F1
:1048B00084F8463000949DF81830FFF795FF2046A5
:1048C00004B010BD50B94FF0500372B683F3118895
:1048D000BFF36F8FBFF34F8F62B6FEE7F0B583B0C3
:1048E000064611B101FB00F000E0002017460C461F
:1048F000503001F0E7FE054650B1002380F8463005
:1049000000903B4600F1500221463046FFF76CFF15
:10491000284603B0F0BD50B94FF0500372B683F390
:104920001188BFF36F8FBFF34F8F62B6FEE78842E7
:104930000AD24FF0500372B683F31188BFF36F8F22
:10494000BFF34F8F62B6FEE710B582B013460C4638
:104950000222009200221146FFF757FF034600B1E2
:104960008463184602B010BD50B94FF0500372B6C0
:1049700083F31188BFF36F8FBFF34F8F62B6FEE7EB
:1049800088420AD24FF0500372B683F31188BFF306
:104990006F8FBFF34F8F62B6FEE710B50C46022251
:1049A0000021FFF78FFF034600B18463184610BD56
:1049B000F0B585B0019270B10446B9B9026CAAB1E4
:1049C0004FF0500372B683F31188BFF36F8FBFF3BC
:1049D0004F8F62B6FEE74FF0500372B683F3118833
:1049E000BFF36F8FBFF34F8F62B6FEE7022B0DD17F
:1049F000E26B012A0AD04FF0500372B683F311889C
:104A0000BFF36F8FBFF34F8F62B6FEE71E460F46B0
:104A100001F016F960B9019B63B14FF0500372B613
:104A200083F31188BFF36F8FBFF34F8F62B6FEE73A
:104A300000253AE0002538E0324639462046FFF7A7
:104A40000AFE636A4BB9A8B13B4B4FF080521A6023
:104A5000BFF34F8FBFF36F8F0CE004F1240001F020
:104A60004DF838B1344B4FF080521A60BFF34F8F7E
:104A7000BFF36F8F01F0C4FC012005B0F0BD01F061
:104A8000BFFC0020F9E702A801F07EF8012519E03B
:104A9000002384F8443021E0002384F8453023E0EB
:104AA0002046FFF725FE00F0A7FE01F083FCA26B75
:104AB000E36B9A42C0D3022EBED0019B002BDED006
:104AC000002DE0D001F09CFC00F0F4FD01F072FC40
:104AD00094F844305BB2B3F1FF3FD9D094F845303D
:104AE0005BB2B3F1FF3FD7D001F08AFC01A902A865
:104AF00001F054F8C8B92046FFF791FD0028CFD047
:104B0000019904F1100000F0BDFF2046FFF7F0FD11
:104B100000F072FE0028C8D1074B4FF080521A6097
:104B2000BFF34F8FBFF36F8FBFE72046FFF7E0FD66
:104B300000F062FE0020A0E704ED00E048B108B5F7
:104B4000002181600160C1600B460A46FFF730FF1B
:104B500008BD704710B5024600210120FFF7B2FEE4
:104B60000446FFF7EBFF204610BD10B582B0009061
:104B70000B46002211460120FFF747FE0446FFF7CF
:104B8000DDFF204602B010BD38B550B94FF05003DC
:104B900072B683F31188BFF36F8FBFF34F8F62B686
:104BA000FEE70446856801F045F8854201D0002003
:104BB00038BDE368013BE36033B91A461946204625
:104BC000FFF7F6FE0120F3E70120F1E72DE9F843B6
:104BD00070B10446B9B9006CA8B14FF0500372B679
:104BE00083F31188BFF36F8FBFF34F8F62B6FEE779
:104BF0004FF0500372B683F31188BFF36F8FBFF38A
:104C00004F8F62B6FEE7022B0DD1E06B01280AD070
:104C10004FF0500372B683F31188BFF36F8FBFF369
:104C20004F8F62B6FEE71F469046894601F0CAFCE8
:104C3000EFF311864FF0500372B683F31188BFF380
:104C40006F8FBFF34F8F62B6A26BE36B9A4203D3B1
:104C5000022F01D000200FE094F845506DB23A4683
:104C600049462046FFF7F7FCB5F1FF3F08D06B1C23
:104C70005BB284F84530012086F31188BDE8F883E3
:104C8000636A5BB104F1240000F038FF40B1B8F171
:104C9000000F07D00120C8F80000EDE70120EBE786
:104CA0000120E9E70120E7E770B170B50446036C25
:104CB000ABB14FF0500372B683F31188BFF36F8F1F
:104CC000BFF34F8F62B6FEE74FF0500372B683F327
:104CD0001188BFF36F8FBFF34F8F62B6FEE7036893
:104CE0003BB30E4601F06EFCEFF311854FF050031D
:104CF00072B683F31188BFF36F8FBFF34F8F62B625
:104D0000A26BE36B934228D994F845305BB2013231
:104D1000A263B3F1FF3F1AD1636A03B304F1240025
:104D200000F0ECFEE8B1F6B10120306085F31188A7
:104D300070BD8368002BD4D04FF0500372B683F35C
:104D40001188BFF36F8FBFF34F8F62B6FEE7013359
:104D50005BB284F845300120E8E70020E6E7012057
:104D6000E4E70120E2E70120E0E70000F0B585B0CC
:104D7000019270B10446B9B9036CABB14FF0500366
:104D800072B683F31188BFF36F8FBFF34F8F62B694
:104D9000FEE74FF0500372B683F31188BFF36F8FB5
:104DA000BFF34F8F62B6FEE70F4600F049FF60B9D0
:104DB000019B63B14FF0500372B683F31188BFF3C8
:104DC0006F8FBFF34F8F62B6FEE700263EE00026EE
:104DD0003CE039462046FFF779FC013DA563236995
:104DE00023B901F00DFB012005B0F0BD04F1100066
:104DF00000F084FE0028F4D0344B4FF080521A604B
:104E0000BFF34F8FBFF36F8FEBE701F0F9FA00208C
:104E1000EAE702A800F0B8FE012621E0002384F8AA
:104E2000443029E0002384F845302BE02046FFF78A
:104E30005FFC00F0E1FC09E02046FFF759FC00F0C0
:104E4000DBFC2046FFF7FAFB00283DD101F0B2FA67
:104E5000A56B002DBDD1019B002BD6D0002ED8D044
:104E600001F0CEFA00F026FC01F0A4FA94F84430E8
:104E70005BB2B3F1FF3FD1D094F845305BB2B3F1F0
:104E8000FF3FCFD001F0BCFA01A902A800F086FED6
:104E90000028D1D12046FFF7D1FB0028C6D00199C8
:104EA00004F1240000F0EEFD2046FFF721FC00F0A5
:104EB000A3FC0028CAD1054B4FF080521A60BFF303
:104EC0004F8FBFF36F8FC1E700208DE704ED00E047
:104ED00070B584B0019150B94FF0500372B683F3AE
:104EE0001188BFF36F8FBFF34F8F62B6FEE70446A2
:104EF000036C53B14FF0500372B683F31188BFF3C4
:104F00006F8FBFF34F8F62B6FEE700F099FE60B976
:104F1000019B6BB14FF0500372B683F31188BFF35E
:104F20006F8FBFF34F8F62B6FEE700252E4653E02A
:104F300000252E4650E0013BA363236813B900F01F
:104F40007FFFA060236963B104F1100000F0D6FD7B
:104F500038B1494B4FF080521A60BFF34F8FBFF307
:104F60006F8F01F04DFA0125284604B070BD55B190
:104F70004FF0500372B683F31188BFF36F8FBFF306
:104F80004F8F62B6FEE701F03BFAEDE702A800F0B2
:104F9000FBFD01262AE0002384F8443032E00023A0
:104FA00084F8453034E001F005FAA06800F058FEBE
:104FB000054601F025FA3BE02046FFF799FB00F09B
:104FC0001BFC09E02046FFF793FB00F015FC204690
:104FD000FFF734FB002840D101F0ECF9A36B002B64
:104FE000A9D1019B002BC2D0002ECFD001F008FA2E
:104FF00000F060FB01F0DEF994F844305BB2B3F1ED
:10500000FF3FC8D094F845305BB2B3F1FF3FC6D044
:1050100001F0F6F901A902A800F0C0FD0028D1D1E5
:105020002046FFF70BFB0028C6D02368002BBAD020
:10503000019904F1240000F025FD2046FFF758FBFC
:1050400000F0DAFB0028C7D10B4B4FF080521A60FA
:10505000BFF34F8FBFF36F8FBEE7002D84D001F0F9
:10506000A9F92046FFF7D2FA0146A06800F094FEA5
:1050700001F0C6F9002577E704ED00E050B94FF0E4
:10508000500372B683F31188BFF36F8FBFF34F8F56
:1050900062B6FEE770B504460D46866800F0CAFDAC
:1050A000864209D029462046FFF712FF024638B152
:1050B000E3680133E36003E0E3680133E360012266
:1050C000104670BD2DE9F84370B10446B9B9036CC0
:1050D000ABB14FF0500372B683F31188BFF36F8FFB
:1050E000BFF34F8F62B6FEE74FF0500372B683F303
:1050F0001188BFF36F8FBFF34F8F62B6FEE717467D
:10510000894601F05FFAEFF311864FF0500372B653
:1051100083F31188BFF36F8FBFF34F8F62B6D4F85C
:105120003880B8F1000F1DD094F844506DB2494654
:105130002046FFF7CBFA08F1FF33A363B5F1FF3F39
:1051400005D06B1C5BB284F8443001200BE023696E
:105150006BB104F1100000F0D1FC50B15FB101203F
:10516000386000E0002086F31188BDE8F883012054
:10517000F9E70120F7E70120F5E700000023072BFE
:105180000CD8074A52F833200AB10133F7E7044A32
:1051900042F8331002EBC30358607047704700BFFA
:1051A000B85200200023072B0FD8084A02EBC30295
:1051B0005268824201D00133F5E7044A002142F8E7
:1051C000331002EBC303596070477047B852002098
:1051D00050B94FF0500372B683F31188BFF36F8F4D
:1051E000BFF34F8F62B6FEE710B50446FFF7DAFF54
:1051F00094F8463003B110BD204601F0E3FAFAE717
:1052000070B504460D46164601F0D4F894F84430C3
:105210005BB2B3F1FF3F0DD094F845305BB2B3F110
:10522000FF3F0BD001F0ECF8A36B5BB12046FFF71A
:105230005FFA70BD002384F84430EDE7002384F862
:105240004530EFE73246294604F1240000F036FCF1
:10525000ECE70000074B9B6A1B6833B1054B9A6A69
:10526000D268D2685268DA627047024B4FF0FF3260
:10527000DA627047E80E00202DE9F84F81460D46AE
:1052800093469A460A9EDDF82C800C9C9200A5213C
:10529000206B06F0FFF9276B6FF040435B4407EB90
:1052A000830727F0070785B300230F2B07D8E95C96
:1052B000E21882F83410EA5C0AB10133F5E7002302
:1052C00084F84330372E00D93726E662E66400259D
:1052D0002565201DFFF75DF904F11800FFF759F966
:1052E0002461C6F13806A6616462656584F8585089
:1052F00052464946384601F033F82060B8F1000FB5
:1053000001D0C8F80040BDE8F88F002384F834309D
:10531000D8E7000070B5002407E004EB8402930096
:1053200010481844FFF72AF90134372CF5D90E4CF0
:1053300004F592663046FFF721F904F2A4452846A9
:10534000FFF71CF904F11400FFF718F904F5976052
:10535000FFF714F92046FFF711F9A662C4F8CC5400
:1053600070BD00BF180F0020E80E002038B50446BD
:1053700001F020F8274BD3F8D0240132C3F8D02411
:10538000D3F8D43473B1234BD3F8D8348BB9214B31
:10539000D3F8D434DA6AE36A9A420AD81D4BC3F8C8
:1053A000D44406E01B4BC3F8D444D3F8D034012BCB
:1053B0002CD0184AD2F8DC340133C2F8DC346364F0
:1053C000E36AD2F8E024934202D9124AC2F8E034E8
:1053D000104D05F1300003EB83039A00211D1044AA
:1053E000FFF7DAF801F00CF8D5F8D8346BB1D5F83E
:1053F000D434DA6AE36A9A4207D2074B4FF08052FC
:105400001A60BFF34F8FBFF36F8F38BDFFF782FF76
:10541000CFE700BFE80E002004ED00E010B5044621
:1054200090F8593033B9006B01F0CCF9204601F007
:10543000C9F910BD012B0CD0022BFAD04FF050034C
:1054400072B683F31188BFF36F8FBFF34F8F62B6CD
:10545000FEE701F0B7F9ECE738B517E000F0AAFF76
:105460000D4CD4F8C434DD68281DFFF7BBF8D4F820
:10547000D034013BC4F8D034D4F8E434013BC4F850
:10548000E43400F0BDFF2846FFF7C8FF024BD3F815
:10549000E434002BE2D138BDE80E002008B5FFF758
:1054A000DBFF064B1B6B012BF9D9054B4FF08052EC
:1054B0001A60BFF34F8FBFF36F8FF0E7E80E002045
:1054C00004ED00E070B504460E461A4BD3F8E854DC
:1054D000D3F8D4040430FFF785F8B4F1FF3F14BFCC
:1054E00000230123002E08BF002393B92C44114B45
:1054F000D3F8D4345C60A54212D80E4DA86AD5F812
:10550000D4140431FFF754F8EB6AA34210D9EC62CB
:105510000EE00848D0F8D4140431FFF73DF807E056
:10552000044BD3F8CC04D3F8D4140431FFF740F87B
:1055300070BD00BFE80E002070B586B00B9D0C9CBE
:1055400055B94FF0500372B683F31188BFF36F8FD4
:10555000BFF34F8F62B6FEE754B94FF0500372B6F7
:1055600083F31188BFF36F8FBFF34F8F62B6FEE7EF
:105570005C260496049E5C2E0AD04FF0500372B64F
:1055800083F31188BFF36F8FBFF34F8F62B6FEE7CF
:10559000049E2563022584F8595000250395029442
:1055A00005AD01950A9D0095FFF766FE2046FFF7C1
:1055B000DDFE059806B070BD2DE9F04385B00746C5
:1055C000884615469946900001F07CF808B30646D7
:1055D0005C2001F077F80446B8B10663E4B100231B
:1055E00084F85930039302940D9B01930C9B009314
:1055F0004B462A4641463846FFF73EFE2046FFF717
:10560000B5FE012005B0BDE8F083304601F0DAF8C0
:10561000E4E74FF0FF30F5E74FF0FF30F2E700002E
:1056200010B588B000240594069407AA06A905A819
:10563000FEF786FF059B0293069B01930094234689
:10564000079A19491948FFF777FF40B100F06CFC41
:10565000012806D0B0F1FF3F1AD008B010BD0020DD
:10566000F6E74FF0500372B683F31188BFF36F8FE4
:10567000BFF34F8F62B60E4B4FF0FF32DA6201225A
:10568000C3F8D8240022C3F8E82400F037FFE4E789
:105690004FF0500372B683F31188BFF36F8FBFF3DF
:1056A0004F8F62B6FEE700BF88DE00089D540008F9
:1056B000E80E0020034AD2F8EC340133C2F8EC348F
:1056C000704700BFE80E0020014BD3F8E804704794
:1056D000E80E002008B500F075FF024BD3F8E8048F
:1056E00008BD00BFE80E00202DE9F041414BD3F882
:1056F000EC34002B6FD13F4BD3F8E8540135C3F89D
:10570000E854DDB99B6A1B6853B14FF0500372B681
:1057100083F31188BFF36F8FBFF34F8F62B6FEE73D
:10572000344B9A6AD3F8CC149962C3F8CC24D3F8DA
:10573000F0240132C3F8F024FFF78CFD2D4BDB6A17
:10574000AB423ED900242B4AD2F8D434DB6A03EBB7
:10575000830399000A44136B012B43D9012441E0D0
:105760000124244B9B6A1B686BB3224B9B6ADB684A
:10577000DE6873689D422BD306F104084046FEF7AD
:1057800031FFB36A1BB106F11800FEF72BFFF36A75
:10579000184AD2F8E024934202D9164AC2F8E034FB
:1057A000144F07F1300003EB83039A004146104485
:1057B000FEF7F2FEF26AD7F8D434DB6A9A42CFD20F
:1057C000CFE70024CDE70B4B4FF0FF32DA62BAE7A8
:1057D000084AD362B7E7074AD2F8F4340133C2F873
:1057E000F4340024034BD3F8F83403B101242046E9
:1057F000BDE8F081E80E00203A4BD3F8EC3453B901
:105800004FF0500372B683F31188BFF36F8FBFF36D
:105810004F8F62B6FEE770B500F0CCFD314BD3F888
:10582000EC24013AC3F8EC24D3F8EC34002B54D127
:105830002C4BD3F8D03423B9002400F0E1FD2046EE
:1058400070BD0024274B5B692BB3264D2B6ADC68A7
:1058500004F11800FEF7C6FE261D3046FEF7C2FE14
:10586000E36AD5F8E024934201D9C5F8E0341D4D30
:1058700005F1300003EB83039A0031461044FEF734
:105880008BFEE26AD5F8D434DB6A9A42DAD301227D
:10589000C5F8F824D6E70CB1FFF7DCFC114BD3F8C0
:1058A000F44464B1FFF720FF18B10E4B0122C3F896
:1058B000F824013CF6D10B4B0022C3F8F424094B29
:1058C000D3F8F8345BB1084B4FF080521A60BFF345
:1058D0004F8FBFF36F8F0124AFE70024ADE70024A3
:1058E000ABE700BFE80E002004ED00E038B560B182
:1058F0000546A9B94FF0500372B683F31188BFF380
:105900006F8FBFF34F8F62B6FEE74FF0500372B652
:1059100083F31188BFF36F8FBFF34F8F62B6FEE73B
:105920001C4BD3F8EC3453B14FF0500372B683F3F1
:105930001188BFF36F8FBFF34F8F62B6FEE70C463F
:10594000FFF7B8FE134BD3F8E8042A6814448242E8
:1059500018D9A2420CD82C60FFF74EFF38B90E4B75
:105960004FF080521A60BFF34F8FBFF36F8F38BD77
:10597000A04201D32C60EFE72C600021201AFFF732
:10598000A1FDE9E7A24201D8A04201D22C60F4E7D0
:105990002C60E1E7E80E002004ED00E010B5C0B196
:1059A0000446104BD3F8EC3453B14FF0500372B6A9
:1059B00083F31188BFF36F8FBFF34F8F62B6FEE79B
:1059C000FFF778FE00212046FFF77CFDFFF714FF6C
:1059D00038B9054B4FF080521A60BFF34F8FBFF3B9
:1059E0006F8F10BDE80E002004ED00E0244BD3F8CB
:1059F000EC3423B1224B0122C3F8F8247047204B2A
:105A00000022C3F8F824D3F8E03403EB83029100BA
:105A10001B4A0A44126B6AB90BB1013BF5E74FF020
:105A2000500372B683F31188BFF36F8FBFF34F8FAC
:105A300062B6FEE710B4124A9900CC18A0001044D8
:105A4000446B64684463303219448800083002446F
:105A500094420DD00A4903EB830082000A44526B42
:105A6000D268C1F8D424C1F8E0345DF8044B704723
:105A700061680348142202FB03025163EAE700BF96
:105A8000E80E002050B94FF0500372B683F311882E
:105A9000BFF36F8FBFF34F8F62B6FEE710B50C46B2
:105AA000054BD3F8D4141831FEF782FD01212046AE
:105AB000FFF708FD10BD00BFE80E002038B550B953
:105AC0004FF0500372B683F31188BFF36F8FBFF3AB
:105AD0004F8F62B6FEE70C461546074AD2F8D4143B
